:020000040000FA
:10000000B0790020A5790000DF4602009179000058
:1000100091790000917900009179000091790000B8
:100020000000000000000000000000000D7B000048
:100030009179000000000000A17A00009179000091
:10004000C97C0000C97C0000C97C0000C97C00009C
:10005000C97C0000C97C0000C97C0000C97C00008C
:10006000C97C0000C97C0000C97C0000C97C00007C
:10007000C97C0000C97C0000C97C0000C97C00006C
:10008000C97C0000C97C0000C97C0000C97C00005C
:10009000C97C0000C97C0000C97C0000C97C00004C
:1000A000C97C0000C97C0000C97C0000C97C00003C
:1000B000C97C0000C97C0000C97C0000C97C00002C
:1000C000C97C0000C97C0000C97C0000C97C00001C
:1000D000C97C0000C97C0000C97C0000C97C00000C
:1000E000C97C0000C97C0000C97C0000C97C0000FC
:1000F000C97C0000C97C0000C97C0000C97C0000EC
:10010000C97C0000C97C0000C97C0000C97C0000DB
:10011000C97C0000C97C0000C97C0000C97C0000CB
:10012000C97C0000C97C0000C97C0000C97C0000BB
:10013000C97C0000C97C0000C97C0000C97C0000AB
:10014000C97C0000C97C0000C97C0000C97C00009B
:04015000C97C000066
:100158002DE9F14F03F11C0402EB840C4FEA930BD9
:100168008A68CB680868496800F046F93CE9F000FD
:100178006040694072407B400BF1060E4EE083EA16
:10018800134480EA134582EA134746BA96EA344490
:10019800604000F00F1684EA063420F00F1684EA57
:1001A800161054BA94EA0106724002F00F1486EA57
:1001B800043622F00F1486EA14124CBA65406940DE
:1001C80001F00F1485EA043521F00F1485EA1411A3
:1001D8005CBA67407B4003F00F1487EA043723F0CA
:1001E8000F1487EA141344BA44404DBA4D4056BA26
:1001F80056405FBA5F4087EA174886EA174B84EA99
:1002080017464FEA38488BEA1B4485EA1B4788EAB9
:100218001B4580EA3440694072407B4000F07034EE
:1002280000F0803500F00F3040EA440040EAD50085
:1002380080EA900404F0332480EA8400604001F0EE
:10024800703401F0803501F00F3141EA440141EA90
:10025800D50181EA910404F0332481EA84016140E4
:1002680002F0703402F0803502F00F3242EA4402A4
:1002780042EAD50282EA920404F0332482EA840234
:10028800624003F0703403F0803503F00F3343EA23
:10029800440343EAD50383EA930404F0332483EA4E
:1002A80084036340C943DB4381EA000483EA0446CC
:1002B80086EA020183EA014382EA334583EA14436A
:1002C8005C4084EA00077FEA040A8AEA024A8AEA6A
:1002D800010B87EA11488AEA374A80EA060181EA6F
:1002E8001A418AEA030A04EA0A00454088EA040730
:1002F80007EA0B0041408AEA0B0608EA060084EA8E
:1003080034428AEA3A4602EA0603584045404140E8
:1003180087EA37438BEA3B4003EA000985EA090587
:1003280082EA0309464006EA0906714085EA0100A7
:1003380005EA3546464006EA314181EA304181EA1C
:10034800364606EA304686EA354634400F4086EAA5
:10035800010508EA050886EA3640024088EA0208EC
:1003680081EA314213405C4080EA020309EA03094A
:1003780087EA0907674088EA040806EA0A0601EAE4
:100388000B018AEA0B0425408AEA3A44204045409A
:100398008BEA3B4B02EA0B02564084EA0B042340EB
:1003A80059406E40694087EA364080EA384080EA22
:1003B800060380EA104481EA134585EA344585EA54
:1003C80017427D4082EA354180EA05403CE9F00069
:1003D8006040694072407B40BEF1010E3FF6CFAEEF
:1003E80020BC00F05FF828606960AA60EB60BDE897
:1003F800F08F00BF00F000BA80EA101404F0F01487
:1004080080EA0410604081EA111404F0F01481EAD3
:100418000411614082EA121404F0F01482EA041212
:10042800624083EA131404F0F01483EA041363406F
:1004380080EA102404F47F4480EA0420604081EAC2
:10044800112404F47F4481EA0421614082EA1224E1
:1004580004F47F4482EA0422624083EA132404F409
:100468007F4483EA0423634081EA500404F055344E
:1004780080EA4400614083EA520404F0553482EA79
:100488004402634082EA900404F0333480EA840032
:10049800624083EA910404F0333481EA84016340C2
:1004A800704700BF82EA900404F0333480EA840085
:1004B800624083EA910404F0333481EA84016340A2
:1004C80081EA500404F0553480EA4400614083EA2C
:1004D800520404F0553482EA4402634080EA10244E
:1004E80004F47F4480EA0420604081EA112404F483
:1004F8007F4481EA0421614082EA122404F47F44A3
:1005080082EA0422624083EA132404F47F4483EAE3
:100518000423634080EA101404F0F01480EA041005
:10052800604081EA111404F0F01481EA041161407A
:1005380082EA121404F0F01482EA0412624083EA98
:10054800131404F0F01483EA04136340704700BFE7
:100558002DE9F14F94464FEA930B8A68CB680868F7
:100568004968FFF749FF0BF1060E33E083EA1344AD
:1005780080EA134582EA134746BA96EA3444604053
:1005880000F00F1684EA063420F00F1684EA1610DD
:1005980054BA94EA0106724002F00F1486EA04364F
:1005A80022F00F1486EA14124CBA6540694001F033
:1005B8000F1485EA043521F00F1485EA14115CBA8A
:1005C80067407B4003F00F1487EA043723F00F14C9
:1005D80087EA1413BCE8F0006040694072407B4031
:1005E80000F0E03400F0103500F00F3040EA54001D
:1005F80040EAC50080EA900404F0332480EA8400CD
:10060800604001F0E03401F0103501F00F3141EAAB
:10061800540141EAC50181EA910404F0332481EAD6
:100628008401614002F0E03402F0103502F00F322C
:1006380042EA540242EAC50282EA920404F03324F0
:1006480082EA8402624003F0E03403F0103503F0DC
:100658000F3343EA540343EAC50383EA930404F0DF
:10066800332483EA8403634081EA324787EA1345E7
:1006780081EA354690EA060484EA034B82EA1B4283
:1006880080EA044484EA054483EA144A85EA144467
:100698008BEA044B84EA374481EA0B4181EA16412C
:1006A80004EA0A00454082EA04082BEA08004140AF
:1006B8008AEA0B0602EA060084EA34438AEA3A46E2
:1006C80003EA060778404540414088EA38478BEA04
:1006D8003B4007EA000985EA090583EA070946401D
:1006E80006EA0906714085EA010005EA35464640F2
:1006F80006EA314181EA304181EA364606EA304667
:1007080086EA3546344008EA010886EA01052A40A7
:1007180086EA364003405A4081EA31431F407C4014
:1007280080EA030709EA070988EA0908544088EAC1
:10073800020806EA0A0601EA0B018AEA0B021540DA
:100748008AEA3A42104045408BEA3B4003405E400B
:100758004240174079404D404E40E443F64386EA14
:1007680018435D4085EA054083EA134386EA03415E
:1007780083EA384284EA114383EA04435FEA334355
:10078800BEF1010E3FF6F2AE1ED4BCE8F0006040A8
:10079800694072407B4020BCFFF784FE2860696096
:1007A800AA60EB60BDE8F08F2DE9E0414FF2F0025E
:1007B80080EA1031114080EA01304840410882083F
:1007C800C3084FF0000E4FE700F0113001F011316F
:1007D80002F0113203F0113340EA410040EA82008E
:1007E80040EAC3004FF2F00280EA1031114080EA7B
:1007F80001304840BDE8E0812DE9F04F02F11C05C9
:100808000646074600EB850851F8040B043A46F8FB
:10081800040BF9D14FF0010CFFF7C6FF5FEA302057
:1008280080EA0C001ECF41404A4053405C401EC63F
:100838002000464517D04FEA4C0C1CF4807F18BFA7
:10084800ACF1E50C2C2DE7D03C2D06D1FFF7ACFF21
:1008580006CF41404A4006C6100006CF41404A40F4
:1008680006C61000D8E736E90F00FFF7C5FD043DBE
:1008780086E80F00F7D1BDE8F08F00BF2DE9F0073B
:1008880091E8F807B2E802105B1854EB0C04B2E8E0
:1008980002104D4156EB0C06B2E802104F4158EBDE
:1008A8000C08B2E8021059EB01095AEB0C0A80E86F
:1008B800F80780410130BDE8F00770472DE9F007DF
:1008C80091E8F807B2E802105B1A74EB0C04B2E87E
:1008D80002108D4176EB0C06B2E802108F4178EBDE
:1008E8000C08B2E8021079EB01097AEB0C0A80E8EF
:1008F800F80780414042BDE8F00770472DE9F0074E
:10090800524290E87800B1E880071740DB1918EAEE
:10091800020854EB080419EA020955EB09051AEA1A
:10092800020A56EB0A0678C090E87800B1E880071A
:1009380017407B4118EA020854EB080419EA020937
:1009480055EB09051AEA020A56EB0A0678C08041F7
:100958000130BDE8F00770472DE9F007524290E8F2
:100968007800B1E880071740DB1B18EA020874EB2F
:10097800080419EA020975EB09051AEA020A76EB76
:100988000A0678C090E87800B1E880071740BB41B4
:1009980018EA020874EB080419EA020975EB09055C
:1009A8001AEA020A76EB0A0678C080414042BDE89E
:1009B800F00770472DE9F00152424FF0040890E823
:1009C800300091E8C000A31B1340E41AF618EB1B93
:1009D8001340ED1AFF1830C0C0C1B8F10108EED1BC
:1009E800BDE8F001704700BF00B592E8DC072DE9CB
:1009F800DC07B1E8805702B4A7FB02510A95A8FBAF
:100A0800020BE7FB6310E9FB62B00B91A8FB0351F3
:100A1800EAFB6201E7FB64B5E7FB6605E8FB6615E0
:100A2800CDF830B0A9FB03B6EAFB6316ECFB6356BE
:100A3800E8FB640BE9FB641BEAFB645BECFB646B9F
:100A48000D90ACFB0230059CEEFB6250E9FB646044
:100A5800EAFB64B0E7FB6431E8FB6451069CE8FB01
:100A68006461E9FB64B1EAFB64010E93A7FB0432FD
:100A7800079CE7FB6462E8FB64B2E9FB6402EAFBFB
:100A88006412049CE9FB6453EAFB6463089CE7FB7B
:100A980064B3E8FB6403E9FB6413EAFB64230F9582
:100AA8005DF8049B99E80006DDF80080A9FB08546E
:100AB800EAFB68B4DDF81080ECFB6804EEFB681410
:100AC800E9FB6824EAFB6834DDF80480EEFB68651E
:100AD800E9FB68B5EAFB6805DDF81480ECFB6815EE
:100AE800EEFB6825E9FB6835EAFB68450F96DDF8FB
:100AF8000880AEFB0876E9FB6806EAFB6816DDF8B5
:100B08001880ECFB6826EEFB6836E9FB6846EAFBD2
:100B18006856DDF80C80ECFB68B7EEFB6807E9FB6C
:100B28006817EAFB6827DDF81C80ECFB6837EEFBEA
:100B38006847E9FB6857EAFB686708B000BD00BF73
:100B48002DE9F14F87B0FFF74FFFDDF81C8008F162
:100B5800200888E8FF00FFBC87E87F08BDE8F08F21
:100B680000B591E89857A3FB03520195A3FB040134
:100B7800E3FB6420E3FB67100292A3FB0752E3FB4D
:100B88006802E4FB6415E3FB6805E3FB6925039150
:100B9800A4FB07B6E3FB6926E3FB6A56E4FB670B95
:100BA800E4FB682BE3FB6A5BE3FB6C6B0490A4FB40
:100BB8000810E4FB6950E3FB6C60E3FB6EB0E7FBF5
:100BC8006721E4FB6951E4FB6A61E3FB6EB1E4FB76
:100BD8006E010592A7FB0832E4FB6A62E4FB6CB283
:100BE800E4FB6E02E7FB6E12E7FB6853E7FB696301
:100BF800E4FB6CB3E7FB6C03E7FB6E13E8FB6E23C7
:100C08000695A7FB0954E7FB6AB4E7FB6C04E8FB0D
:100C18006C14E8FB6E24E9FB6E34E8FB6865E7FBBF
:100C28006AB5E8FB6A05E8FB6C15E9FB6C25E9FB8E
:100C38006E35EAFB6E450796A8FB0976E8FB6A065F
:100C4800E9FB6A16E9FB6C26EAFB6C36EAFB6E46A2
:100C5800ECFB6E56E8FB69B7E9FB6907E9FB6A1725
:100C6800EAFB6A27EAFB6C37ECFB6C47ECFB6E5738
:100C7800EEFB6E6700BD00BF2DE9F14F87B0FFF7AF
:100C88006FFFDDF81C8008F1200888E8FF00FFBC32
:100C980087E87F08BDE8F08F30B44FF0000310F804
:100CA800014B11F8015B013A84EA050443EA0403A5
:100CB800F5D1A3F101034FEAD37030BC704700BFF0
:100CC8004FF0000310F8012B013943EA0203F9D170
:100CD800A3F101034FEAD370704700BF30B411F895
:100CE800014B12F8015B6C4000F8014B013BF6D157
:100CF80030BC70472DE9F04F90E8F00F00F140004C
:100D08004FF0040E59E0F0B4826BC36B04680525FC
:100D1800242687593C444FEA724787EAF24787EA14
:100D280092273C4442684FEAF21787EAB24787EABB
:100D3800D2073C4440F8044B032D08BF6FF01B0654
:100D480087593A444FEA734787EAF34787EA932774
:100D58003A4443684FEAF31787EAB34787EAD30769
:100D68003A4440F8042B87593B444FEA744787EAD2
:100D7800F44787EA94273B4444684FEAF41787EA24
:100D8800B44787EAD4073B4440F8043B013DC0D14F
:100D9800A0F13C00076A3C444FEA724787EAF247F1
:100DA80087EA92273C4402684FEAF21787EAB2477B
:100DB80087EAD2073C44C463F0BC4FF0020288EAD9
:100DC800781C8CEAF84C0BEBBC1C8AEA090303EA92
:100DD800080383EA0A039C4450F8043B9C4451F8F6
:100DE800043B9C44674444EA050B0BEA060B04EAFF
:100DF80005034BEA030BE34484EAF42383EA345300
:100E08000BEBB30B87EA771C8CEAF74C0AEBBC1C9C
:100E180089EA080303EA070383EA09039C4450F8B4
:100E2800043B9C4451F8043B9C4466444BEA040A46
:100E38000AEA050A0BEA04034AEA030AE2448BEACF
:100E4800FB2383EA3B530AEBB30A86EA761C8CEA57
:100E5800F64C09EBBC1C88EA070303EA060383EA9D
:100E680008039C4450F8043B9C4451F8043B9C44C0
:100E780065444AEA0B0909EA04090AEA0B0349EA44
:100E88000309E1448AEAFA2383EA3A5309EBB309EE
:100E980085EA751C8CEAF54C08EBBC1C87EA06034E
:100EA80003EA050383EA07039C4450F8043B9C4487
:100EB80051F8043B9C44644449EA0A0808EA0B08D0
:100EC80009EA0A0348EA0308E04489EAF92383EABD
:100ED800395308EBB30884EA741C8CEAF44C07EB2A
:100EE800BC1C86EA050303EA040383EA06039C4460
:100EF80050F8043B9C4451F8043B9C44E34448EAC2
:100F0800090707EA0A0708EA090347EA03076744E3
:100F180088EAF82383EA385307EBB3078BEA7B1C8C
:100F28008CEAFB4C06EBBC1C85EA040303EA0B03C2
:100F380083EA05039C4450F8043B9C4451F8043B65
:100F48009C44E24447EA080606EA090607EA080359
:100F580046EA0306664487EAF72383EA375306EB33
:100F6800B3068AEA7A1C8CEAFA4C05EBBC1C84EAC4
:100F78000B0303EA0A0383EA04039C4450F8043B86
:100F88009C4451F8043B9C44E14446EA070505EAC1
:100F9800080506EA070345EA0305654486EAF623D9
:100FA80083EA365305EBB30589EA791C8CEAF94CD8
:100FB80004EBBC1C8BEA0A0303EA090383EA0B036C
:100FC8009C4450F8043B9C4451F8043B9C44E04446
:100FD80045EA060404EA070405EA060344EA0304AA
:100FE800644485EAF52383EA355304EBB304013AF4
:100FF8007FF4E5AEA0F14000BEF1010E7FF483AEB0
:10100800A0F1400C9CE80F00001949199219DB194E
:10101800ACE80F009CE80F004044494452445B444C
:10102800ACE80F00BDE8F08F2DE9F00791E8F8076C
:10103800B2E802105B1854EB0C04B2E802104D4100
:1010480056EB0C06B2E802104F4158EB0C08B2E818
:10105800021059EB01095AEB0C0A8941B3F1FF332D
:1010680074F1FF3475F1FF3576F1000677F100076A
:1010780078F1000879F101097AF1FF3A51F100019C
:101088005B184C414D4156F1000657F1000758F1E5
:10109800000859EBD1795AEB010A80E8F807BDE856
:1010A800F00770472DE9F00791E8F807B2E8021059
:1010B8005B1A74EB0C04B2E802108D4176EB0C0657
:1010C800B2E802108F4178EB0C08B2E8021079EB15
:1010D80001097AEB0C0A89415B184C414D4156F1E4
:1010E800000657F1000758F1000859EBD1795AEB7F
:1010F800010A80E8F807BDE8F007704718EB040814
:1011080059EB05095AEB060A5BEB070B5FF0000C7D
:101118004CF1000C18EB050859EB06095AEB070AC5
:101128005BEB070B50EB0C005FF0000C51EB0C0174
:1011380052EB0C0263414CF1000CB8EB070879F153
:1011480000097AF1000A7BEB040BA841B141A241E6
:10115800B3416CF1000CBBEB050BB041B941AA419E
:10116800BB416CF1000C4CF001068CF0020718EB47
:10117800060859EB6C095AEB6C0A7BEB6C0B70EBAD
:101188006C0471EB6C0572EB670653EB6C076CEB48
:101198006C0C18EB0C0059EB0C015AEB0C025BF1D0
:1011A800000354F1000455F1000556EBDC7657EBCB
:1011B8000C0770472DE9F14F87B0FFF715FCDDF8F4
:1011C8001080DDF81490DDF818A0FFF797FFBDE850
:1011D800000FFFF793FF03B05DF8048B88E8FF006A
:1011E800BDE8F08F2DE9F14F87B0FFF7B9FCDDF8C6
:1011F8001080DDF81490DDF818A0FFF77FFFBDE838
:10120800000FFFF77BFF03B05DF8048B88E8FF0051
:10121800BDE8F08F81F0004102E000BF83F0004399
:1012280030B54FEA41044FEA430594EA050F08BF79
:1012380090EA020F1FBF54EA000C55EA020C7FEA3D
:10124800645C7FEA655C00F0E2804FEA5454D4EBBA
:101258005555B8BF6D420CDD2C4480EA020281EA84
:10126800030382EA000083EA010180EA020281EABC
:101278000303362D88BF30BD11F0004F4FEA01310E
:101288004FF4801C4CEA113102D0404261EB41011D
:1012980013F0004F4FEA03334CEA133302D05242A3
:1012A80063EB430394EA050F00F0A780A4F101045F
:1012B800D5F1200E0DDB02FA0EFC22FA05F2801899
:1012C80041F1000103FA0EF2801843FA05F359417F
:1012D8000EE0A5F120050EF1200E012A03FA0EFCFE
:1012E80028BF4CF0020C43FA05F3C01851EBE37128
:1012F80001F0004507D54FF0000EDCF1000C7EEB45
:1013080000006EEB0101B1F5801F1BD3B1F5001F82
:101318000CD349085FEA30004FEA3C0C04F10104A1
:101328004FEA445212F5800F80F09A80BCF1004FCA
:1013380008BF5FEA500C50F1000041EB045141EA4C
:10134800050130BD5FEA4C0C404141EB0101013C15
:1013580028BFB1F5801FE9D291F0000F04BF014604
:101368000020B1FA81F308BF2033A3F10B03B3F1D6
:1013780020020CDA0C3208DD02F1140CC2F10C0266
:1013880001FA0CF021FA02F10CE002F11402D8BFC4
:10139800C2F1200C01FA02F120FA0CFCDCBF41EA90
:1013A8000C019040E41AA2BF01EB0451294330BD5F
:1013B8006FEA04041F3C1CDA0C340EDC04F114043C
:1013C800C4F1200220FA04F001FA02F340EA030013
:1013D80021FA04F345EA030130BDC4F10C04C4F159
:1013E800200220FA02F001FA04F340EA0300294639
:1013F80030BD21FA04F0294630BD94F0000F83F483
:10140800801306BF81F480110134013D4EE77FEA65
:10141800645C18BF7FEA655C29D094EA050F08BFB1
:1014280090EA020F05D054EA000C04BF1946104692
:1014380030BD91EA030F1EBF0021002030BD5FEAD6
:10144800545C05D14000494128BF41F0004130BDFE
:1014580014F580043CBF01F5801130BD01F0004552
:1014680045F0FE4141F470014FF0000030BD7FEAC5
:10147800645C1ABF194610467FEA655C1CBF0B46C0
:10148800024650EA013406BF52EA033591EA030FD7
:1014980041F4002130BD00BF90F0000F04BF0021CF
:1014A800704730B54FF4806404F132044FF0000502
:1014B8004FF0000150E700BF90F0000F04BF00217B
:1014C800704730B54FF4806404F1320410F00045E1
:1014D80048BF40424FF000013EE700BF42004FEADC
:1014E800E2014FEA31014FEA02701FBF12F07F4359
:1014F80093F07F4F81F06051704732F07F4208BF10
:10150800704793F07F4F04BF41F40021704730B516
:101518004FF4607401F0004521F000411CE700BF62
:1015280050EA010208BF704730B54FF000050AE0E5
:1015380050EA010208BF704730B511F0004502D5E6
:10154800404261EB41014FF4806404F132045FEAE8
:10155800915C3FF4D8AE4FF003025FEADC0C18BF91
:1015680003325FEADC0C18BF033202EBDC02C2F183
:10157800200300FA03FC20FA02F001FA03FE40EA15
:101588000E0021FA02F11444BDE600BF70B54FF019
:10159800FF0C4CF4E06C1CEA11541DBF1CEA1355F7
:1015A80094EA0C0F95EA0C0F00F0DEF82C4481EA5F
:1015B800030621EA4C5123EA4C5350EA013518BF7F
:1015C80052EA033541F4801143F4801338D0A0FB6C
:1015D80002CE4FF00005E1FB02E506F00042E0FB19
:1015E80003E54FF00006E1FB03569CF0000F18BF1F
:1015F8004EF0010EA4F1FF04B6F5007F64F54074C7
:1016080004D25FEA4E0E6D4146EB060642EAC62159
:1016180041EA55514FEAC52040EA5E504FEACE2EC6
:10162800B4F1FD0C88BFBCF5E06F1ED8BEF1004FC9
:1016380008BF5FEA500E50F1000041EB045170BD45
:1016480006F0004646EA010140EA020081EA030189
:10165800B4EB5C04C2BFD4EB0C0541EA045170BD85
:1016680041F480114FF0000E013C00F3AB8014F1FF
:10167800360FDEBF002001F0004170BDC4F1000448
:10168800203C35DA0C341BDC04F11404C4F12005C9
:1016980000FA05F320FA04F001FA05F240EA020024
:1016A80001F0004221F0004110EBD37021FA04F65A
:1016B80042EB06015EEA430E08BF20EAD37070BD14
:1016C800C4F10C04C4F1200500FA04F320FA05F073
:1016D80001FA04F240EA020001F0004110EBD37075
:1016E80041F100015EEA430E08BF20EAD37070BDE5
:1016F800C4F1200500FA05F24EEA020E20FA04F3BE
:1017080001FA05F243EA020321FA04F001F000416C
:1017180021FA04F220EA020000EBD3705EEA430EDD
:1017280008BF20EAD37070BD94F0000F0FD101F00C
:101738000046400041EB010111F4801F08BF013C45
:10174800F7D041EA060195F0000F18BF704703F083
:101758000046520043EB030313F4801F08BF013D0A
:10176800F7D043EA0603704794EA0C0F0CEA1355C6
:1017780018BF95EA0C0F0CD050EA410618BF52EA80
:101788004306D1D181EA030101F000414FF0000086
:1017980070BD50EA410606BF1046194652EA430694
:1017A80019D094EA0C0F02D150EA013613D195EA08
:1017B8000C0F05D152EA03361CBF104619460AD150
:1017C80081EA030101F0004141F0FE4141F470015A
:1017D8004FF0000070BD41F0FE4141F4780170BD4A
:1017E80070B54FF0FF0C4CF4E06C1CEA11541DBFAF
:1017F8001CEA135594EA0C0F95EA0C0F00F0A7F8B1
:10180800A4EB050481EA030E52EA03354FEA0131DD
:1018180000F088804FEA03334FF0805545EA1313F0
:1018280043EA12634FEA022245EA111545EA1065B8
:101838004FEA00260EF000419D4208BF964244F14F
:10184800FD0404F5407402D25B084FEA3202B61A6E
:1018580065EB03055B084FEA32024FF480104FF442
:10186800002CB6EB020E75EB030E22BFB61A7546B6
:1018780040EA0C005B084FEA3202B6EB020E75EB49
:10188800030E22BFB61A754640EA5C005B084FEAB1
:101898003202B6EB020E75EB030E22BFB61A75467E
:1018A80040EA9C005B084FEA3202B6EB020E75EB89
:1018B800030E22BFB61A754640EADC0055EA060E4A
:1018C80018D04FEA051545EA16754FEA06164FEA8D
:1018D800C30343EA52734FEAC2025FEA1C1CC0D139
:1018E80011F4801F0BD141EA00014FF000004FF0C6
:1018F800004CB6E711F4801F04BF01430020B4F187
:10190800FD0C88BFBCF5E06F3FF6AFAEB5EB030C3E
:1019180004BFB6EB020C5FEA500C50F1000041EB3B
:10192800045170BD0EF0004E4EEA113114EB5C0408
:10193800C2BFD4EB0C0541EA045170BD41F48011DB
:101948004FF0000E013C90E645EA060E8DE60CEAE3
:10195800135594EA0C0F08BF95EA0C0F3FF43BAF00
:1019680094EA0C0F0AD150EA01347FF434AF95EAB7
:101978000C0F7FF425AF104619462CE795EA0C0F9B
:1019880006D152EA03353FF4FDAE1046194622E768
:1019980050EA410618BF52EA43067FF4C5AE50EA42
:1019A80041047FF40DAF52EA43057FF4EBAE12E732
:1019B8004FEA410212F5001215D211D56FF478736F
:1019C800B3EB625212D94FEAC12343F0004343EA12
:1019D800505311F0004F23FA02F018BF40427047ED
:1019E8004FF00000704750EA013005D111F0004077
:1019F80008BF6FF0004070474FF00000704700BF0D
:101A08007BB972B90029BEBF00204FF0004106E043
:101A180008BF00281CBF6FF000414FF0FF3000F0F6
:101A280057B8ADF1080C6DE904CE002909DB002B8D
:101A38001ADB00F069F8DDF804E0DDE9022304B000
:101A48007047404261EB4101002B1BDB00F05CF862
:101A5800DDF804E0DDE9022304B0404261EB410116
:101A6800524263EB43037047524263EB430300F077
:101A78004BF8DDF804E0DDE9022304B0404261EBF5
:101A880041017047524263EB430300F03DF8DDF833
:101A980004E0DDE9022304B0524263EB43037047DC
:101AA80053B94AB9002908BF00281CBF4FF0FF31BD
:101AB8004FF0FF3000F00CB8ADF1080C6DE904CE22
:101AC80000F022F8DDF804E0DDE9022304B07047F5
:101AD800704700BF10F8012B11F8013B012A28BFFD
:101AE8009A42F7D0D01A7047034611F8012B03F831
:101AF800012B002AF9D17047034613F8012B002A5D
:101B0800FBD1181A013870472DE9F04786468C46F4
:101B18000846089E154674461946002B40F0C180B9
:101B28008542B2FA82F245D94AB1C2F1200300FADD
:101B380002FC954094402EFA03F343EA0C0C4FEA5A
:101B4800154EA8B2230CBCFBFEF80EFB18CC08FB04
:101B580000F943EA0C43994528D9EB1808F1FF37F7
:101B680004D2994502D9A8F102072B44A3EB090333
:101B7800A4B2B3FBFEFC0EFB1C330CFB00F044EAE2
:101B88000344A04214D92C190CF1FF3304D2A0420B
:101B980002D9ACF102032C44241A43EA07401EB1CF
:101BA800D440002334607360BDE8F0874746DDE722
:101BB8006346F1E792BB431B01214FEA154EAFB2D2
:101BC800200CB3FBFEFC0EFB1C330CFB07F840EAB1
:101BD8000343984561D9EB180CF1FF3004D29845BE
:101BE80002D9ACF102002B44A3EB0803A4B2B3FB67
:101BF800FEFC0EFB1C330CFB07F744EA0344A74228
:101C08004DD92C190CF1FF3304D2A74202D9ACF1FB
:101C180002032C44E41B43EA0040C0E7C2F120035E
:101C28009540944020FA03F12EFA03F34FEA154E3B
:101C38009040AFB20343B1FBFEFC0EFB1C10190C25
:101C48000CFB07F841EA0041884522D969180CF1D4
:101C5800FF3004D2884502D9ACF102002944A1EB37
:101C680008019BB2B1FBFEFC0EFB1C110CFB07F735
:101C780043EA01439F420ED9EB180CF1FF3104D21D
:101C88009F4202D9ACF102012B44DB1B41EA00411F
:101C980093E76046E3E76146F7E76046A4E76346F3
:101CA800B8E7834206D916B9002108467CE7C6E999
:101CB80000E0F9E7B3FA83F78FB9834201D372459D
:101CC80008D8BEEB020460EB030301209C461EB952
:101CD800002169E73846FAE7C6E9004CF8E7C7F19A
:101CE800200CBB400EFA07F522FA0CF42EFA0CF180
:101CF800BA401C4320FA0CF3B8404FEA1449014398
:101D08001FFA84FEB3FBF9F809FB18300B0C08FB2B
:101D18000EFA43EA00439A4540D9E31808F1FF3028
:101D280004D29A4502D9A8F102002344A3EB0A037E
:101D380089B2B3FBF9F809FB183308FB0EFE41EA38
:101D480003418E452CD9611808F1FF3304D28E4522
:101D580002D9A8F10203214443EA0040A1EB0E0195
:101D6800A0FB02984145CE46434602D306D14D45D5
:101D780004D20138B9EB020E68EB0403002EA7D099
:101D8800B5EB0E0261EB030101FA0CFC22FA07F332
:101D9800F9404CEA0303C6E9003199E74046C5E734
:101DA8004346D9E7000000002DE9F04F0FF2701B01
:101DB800DBE900AB002425465B4E9FB0E0B200F0A3
:101DC800B1FF08B32346594A00900121584822F030
:101DD800CBFA0134082CF1D100F074FF5DB100207A
:101DE800AAB20EA905F0A2F9034620B10221514A70
:101DF8004F4821F00AF84FF4203200234E4818F0DB
:101E080003FD1FB0BDE8F08F306883683F21DB68B1
:101E1800984718B1494A23460090D6E764270D2110
:101E2800306808AA21F007F8102130680AAA21F0C2
:101E380002F80E2130680CAA20F0FDFF0C9A42F23D
:101E4800107192FBF7F007FB1022002AB8BF52422C
:101E5800CDE902020B9A099B92FBF1F293FBF1F395
:101E6800002AB8BF524201920A9A002BB8BF5B42BF
:101E7800214633480092089A21F01CFA0EAB2B44F5
:101E88000D980793FFF718FB52465B46FFF7A8FC2F
:101E980080460C988946FFF70FFB02460B464046E2
:101EA8004946FFF7BDF90022264BFFF799FCCDE91B
:101EB80004010B98FFF700FB52465B46FFF790FCC6
:101EC80080460A988946FFF7F7FA02460B464046CD
:101ED8004946FFF7A5F9CDE902010998FFF7ECFAA1
:101EE80052465B46FFF77CFC804608988946FFF718
:101EF800E3FA02460B4640464946FFF791F9C5F119
:101F08004007CDE90001234639460F4A07981FF0DC
:101F1800E1FD28443F28D8BF05465AE7AFF30080C3
:101F28000000000080842E41482000202EB60200C8
:101F3800ACA10200F2B60200F80E002053B602006F
:101F48008DB6020000005940CEB602000000000025
:101F58000022F0B583B0114640F6034000AF08F008
:101F680005FC0446002840F0A18007F0A7FF2146A1
:101F780041F203003A1D08F0F9FB0446002840F03E
:101F880095807A684B4DD16805F17803D1F8010046
:101F9800D1F8051003C3104606F07EFB214641F236
:101FA80001003A1D08F0E2FB044600287ED178685B
:101FB800C3685A7885F870205A88A5F872201A796B
:101FC80085F87120B3F80720A5F87420B3F8053018
:101FD800A5F8763006F060FB214641F202003A1D72
:101FE80008F0C4FB0446002860D1D7F804C005F106
:101FF8008006DCF80C20531C4132344618685968B6
:10200800083303C493422646F7D1604606F044FBE2
:1020180009F0FCFD0446002848D195F88A30990655
:1020280010D40221244A254822F077FD95F87C3007
:102038005A0647D40121224A204822F06EFD6FF04B
:10204800120433E0072140F6334007F057FF0646F5
:10205800002800F0398107210C3006F04BFC45239D
:1020680003700223C0F80240847144700471224650
:10207800C370314640F6334008F078FB0446A8B9EF
:10208800012140F6314007F039FF0646002800F0EC
:102098001B8101210C3022F0CDFB2246314640F64F
:1020A800314008F063FB04460028BFD020460C37B7
:1020B800BD46F0BDC0040020B3DB0200CCA0020086
:1020C800E1DB0200002142F203003A1D08F04EFB5A
:1020D80004460028EAD17B68A14EDA68D2F80100EC
:1020E800D2F8051003C6184606F0D6FA214642F281
:1020F80002003A1D08F03AFB04460028D6D17C6855
:10210800E368B3F8012091B249B1D97839B1A5F89B
:102118000421DA78114606F1280026F0F1F8204665
:1021280006F0BAFA1F2395F87C60A5F8203116F05E
:10213800200618D1022140F66D4007F0DFFE044664
:10214800002800F0C18002210C3006F0D3FB0123E7
:10215800214603704670324640F66D4008F006FB93
:1021680004460028A2D195F89C301B0712D50021FF
:1021780042F21C003A1D08F0F9FA0446002895D1ED
:102188007868C368D3F80120D3F80530C5E9382347
:1021980006F082FA95F8D8309E0621D53846B91C43
:1021A80008F0BEFB0446002880D1042142F2240036
:1021B80007F0A4FE0646002800F0868004210C30B3
:1021C80006F098FB3B88224603807B883146438093
:1021D80042F2240008F0CAFA044600287FF466AFE9
:1021E80095F8D8305C0610D5002142F22A003A1D35
:1021F80008F0BCFA044600287FF458AF7868C36832
:102208005B7885F8223106F047FA082142F201008E
:1022180007F074FE0446002856D008210C3006F05A
:1022280069FB95F8D81040F2022311F0400F08BF5F
:102238000323024688074CBF43F02C0043F00C00F0
:102248008B0695F8D93048BF40F0400013F0090FCD
:1022580018BF40F40060CE0748BF40F010000021CE
:1022680022F075FC2146002242F2010008F07EFAB5
:10227800044600287FF41AAF95F87C30B5F80411AD
:10228800980624D4C9B941F205003A1D08F06EFA3F
:10229800044600287FF40AAFB5F804317C684BB9CE
:1022A800E368B3F80120A5F804219A882D4811465F
:1022B80026F026F8204606F0EFF9082140F60140FE
:1022C80007F01CFE044660B96FF06804EEE60029CA
:1022D800F3D10121244A254822F01FFC6FF00404A1
:1022E800E4E608210C3006F005FB95F8D8300246E4
:1022F800D9072AD44FF000511D4822F028FC214666
:10230800002240F6014008F031FA044600287FF424
:10231800CDAE01463A1D4FF6014008F027FA58B3F2
:10232800144A0221114822F0F8FB22F0DCFD044691
:1023380000287FF4BBAE0BF07DF9044600287FF43B
:10234800B5AE07F0FBFF0446B0E603A1D1E90001F2
:10235800D3E700BFAFF30080908800020080002020
:1023680098050020C805002005DC0200CCA002006A
:102378001088000228DC02007B686E46DC688AB0A0
:10238800B4F80130032B96BF424A434952F8231050
:102398006A46D3614FF4007340481384404BC2E946
:1023A800050142F8103F4FF413513E4822F0C4FB98
:1023B800B4F80120B546022AB4F8033049D1052BF8
:1023C80047D8394A52F823106E468AB06A46D36114
:1023D8004FF4007335481384314BC2E9050142F8C4
:1023E800103F4FF413512F4822F0A6FBB5466379EE
:1023F80094F806C0032B98BF2D4AB4F80760D4F8A8
:1024080009006C468CB094BF52F8231022496A46E2
:10241800C2E9073C4FF40073DFF898E09385264B38
:10242800C2E905E1C2E909604FF4735142F8103F6F
:102438001C4822F081FBA546786806F02DF900219A
:102448004FF602403A1D08F091F9044618B11B4AAC
:1024580067E71149B8E77868C368B3F80130A5F8A9
:10246800C13006F019F995F8C1305B077FF55DAF0B
:1024780021464FF603403A1D08F078F908B1104A92
:102488004FE77868C3685B7885F8C03006F004F9D0
:102498004BE700BF90A80200E9D802004CDC02001C
:1024A80004000001CCA0020078A8020065DC02004C
:1024B80068A802007DDC020007000001AADC020017
:1024C800D3DC020030B50F4D89B003AC0FCD0FC47B
:1024D8002B680222236001240B4B0C49009403A8AB
:1024E80009F078FA034630B12146094A094820F034
:1024F8008CFC09B030BD0321074A064820F083FC54
:10250800F7E700BFA0A2020018A6020020A602005A
:10251800E8B20200ACA102000DB3020010B5064AF1
:102528000648022120F06FFCBDE8104040F26762C7
:102538000023034818F068B92EB30200ACA10200CA
:10254800C80E002008B5302026F089F838B10023DD
:102558008385011DBDE80840034820F05BBCBDE849
:102568000840FFF7DBBF00BF2C9C020070B5037862
:102578008AB004460E4607AD032B20D8DFE803F0E7
:1025880002191B1D11492846FFF7AEFA0595637815
:102598001E210493A37830460393E3780C4A0293F0
:1025A8002379019363790093A3791FF093FA0AB012
:1025B80070BD0849E7E70849E5E70849E3E70A2164
:1025C8002846074A1FF086FAE0E700BF57B3020023
:1025D80079B302005EB3020065B302006FB3020074
:1025E80017F90200F0B5144689B000AF0D4622F085
:1025F8005CFE3946FFF7BAFFACB96C468AB06A464A
:10260800144BD561C2E905374FF400731384124B9C
:102618004FF41351114842F8103F20F0F8FBA5463B
:102628002437BD46F0BD6E468CB06B460C4AC3E9F4
:102638000754C3E905270B4A4FF462515A620A4A04
:1026480006489A621A46094B42F8103F20F0DFFB11
:10265800B546E5E79CB3020004000001ACA1020006
:10266800BAB30200ABBF0200000203050600000275
:1026780090B589B000AF0C4622F017FE3946FFF737
:1026880075FF8AB06A46094BD461C2E90537084B21
:102698004FF443511362074B07485362074B42F804
:1026A800103F20F0B4FB2437BD4690BDE1B30200D3
:1026B800ABBF020000020204ACA102000500000248
:1026C80090B589B000AF0C4622F0EFFD3946FFF710
:1026D8004DFF8AB06A46094BD461C2E905374FF409
:1026E80000731384064B4FF41351064842F8103F09
:1026F80020F08DFB2437BD4690BD00BF07B4020013
:1027080004000001ACA1020090B589B000AF0C46EE
:1027180022F0CBFD3946FFF729FF8AB06A46094BFC
:10272800D461C2E905374FF400731384064B4FF4A4
:102738001351064842F8103F20F069FB2437BD4684
:1027480090BD00BF29B4020004000001ACA1020042
:10275800B0B588B000AF0C4622F0A7FD3946FFF7A8
:1027680005FF6D468AB06A46124BD461C2E9053747
:10277800114B124C1362124B12485362124B4FF416
:10278800435142F8103F20F042FB2068AD4618B193
:102798000AF0B6F8002323600C4C206830B10AF028
:1027A800AFF800230120236024F04BFE2037BD46FC
:1027B800B0BD00BF3EB40200ABBF02004020002005
:1027C80000020204ACA10200050000024C20002017
:1027D800B0B588B000AF0C46054609F0ABFF124B08
:1027E8001860284622F061FD3946FFF7BFFE6D46A6
:1027F8008AB06A460D4BD461C2E905374FF40073BD
:102808000B4C13840B4B204642F8103F4FF41351E6
:1028180020F0FDFA0321AD462046074A20F0F3FADE
:102828002037BD46B0BD00BF4020002029B40200BB
:10283800ACA102000400000161B40200B0B588B088
:10284800044600AFB1B16C468AB06A46194B1A48C3
:10285800C2E90531194B4FF41151D36140F20133EC
:102868001384174B42F8103F20F0D1FAA5462037C1
:10287800BD46B0BD22F019FD3946FFF777FE6D461B
:1028880088B06A460F4B4FF4E651C2E905374FF45A
:10289800007393830C4B084842F8103F20F0B7FAB6
:1028A8002046AD4609F046FF084B1860012024F089
:1028B800C5FDDCE790B40200ACA10200ABBF02008A
:1028C80004000001B1B40200030000014C20002004
:1028D80080B588B000AF22F0E8FC3946FFF746FE25
:1028E80088B06A46084B4FF4E651C2E905374FF401
:1028F80000739383054B064842F8103F20F087FA8F
:102908002037BD4680BD00BFBEB4020003000001F1
:10291800ACA102002DE9F0470024054688B000AFBD
:102928008846164621461A22381D3C6026F0C9FE04
:10293800284622F0BAFC3946FFF718FE6D4688B0E3
:102948006A46264B4FF4E651C2E905374FF4007347
:102958009383234B234842F8103F20F058FAAD46A2
:10296800DFF88490DFF884A0B44209D0302025F045
:1029780076FE054640B902211D4A1A4820F043FA5E
:102988002037BD46BDE8F087321B272A8CBF272297
:1029980092B2031D828508EB0401184626F06AFEF0
:1029A800AA8D03461444A4B2A6420AD108EB060134
:1029B80011F8011C0D2904D10A20A9180132087147
:1029C800AA8519464846AA8D20F02DFA0028CBD0B2
:1029D8002946504625F07BFCC6E700BFD4B4020068
:1029E80003000001ACA102002C9C0200640C002032
:1029F800EBB4020010B50B78052B00F29580DFE8E8
:102A080003F003802C6172468B68002B00F08C80E9
:102A18004868002800F08880444A1368DBB1181F12
:102A280000231360424A136025F012FE002200239F
:102A3800404816F0BDFF002876D0828D011D3E4823
:102A480020F0F1F900286FD03C4A0221BDE810407F
:102A58003B4820F0D8B90438E6E74A68CB68108DBF
:102A6800034438489BB213850278002A5CD14A682F
:102A7800134413F8013C0A2B01D00D2B54D1012328
:102A880003702D48BDE8104083685B69184700242F
:102A98002C4B30201C7025F0E2FD30B18485011DDF
:102AA800BDE81040244820F0B5B9274A244802213F
:102AB80020F0A9F9BDE8104040F2676200232348DE
:102AC80017F0A2BE302025F0CAFD014648B1002308
:102AD800838519482822BDE81040836804311B69A2
:102AE8001847194AB1E74B68191F1B8D23B1BDE878
:102AF8001040174825F0EBBB0846BDE8104025F00C
:102B0800A7BD0A4A13680BB94B68136008488B685D
:102B180001680B44116803600A8D0748D21A1944EA
:102B2800BDE8104020F07FB910BD00BF2C20002068
:102B380028200020640C00202C9C020016B50200FE
:102B4800ACA10200983C00202EB30200C80E002061
:102B5800480C00202DE9F0438DB04FF0FF324FF0C4
:102B6800FF33284817F018F830220021684626F06D
:102B7800A8FD254FDFF89480DFF894904FF0FF33DD
:102B88004FF0FF32384616F013FFBDF82C40838D06
:102B9800C4F128049C42054628BF1C4600261CB9DF
:102BA800284625F055FDE9E7BDF82C00311D043015
:102BB80022462944684426F05DFDBDF82C202644B1
:102BC800224492B2272AADF82C2008D802F130030B
:102BD8006B4413F82D3C0A2B01D00D2B0CD100208F
:102BE80001A904F0A3FA20B142460221484620F088
:102BF8000AF90023ADF82C30AC8DA41B282C28BF73
:102C08002824CCE7000C0020480C002034B5020032
:102C1800ACA1020008B505480321054A20F0F3F8E5
:102C2800BDE80840034817F00DBB00BFACA1020087
:102C38005CB5020030200020F8B51E4C054620681F
:102C480000AF002833D00D40EA0716D522F057FB15
:102C58006E4688B023686A4617491848C2E90513C2
:102C680003234FF4C65142F8103F20F0D0F8B54680
:102C7800206809F045FE00232360AB0717D52068BC
:102C880022F045FB6D4688B023686A460C490B481C
:102C9800C2E9051303234FF4C65142F8103F20F050
:102CA800B6F8AD46206809F02BFE00232360BD4628
:102CB800F8BD00BF40200020A4B50200ACA102006E
:102CC800BBB50200002330B585B08DF80330124B38
:102CD800012518680DF103030193022302958DF86D
:102CE8000C309DF80C30826843F002038DF80C30EC
:102CF800946870232A4601A9A047044640B10346B8
:102D08002946064A064820F080F8204605B030BD1E
:102D180020F094F80446F8E744200020D3B50200D8
:102D2800ACA1020070B50828054686B029D0012656
:102D380006FA00F38DF80B30134B18680DF10B03EE
:102D4800CDE9033602238DF814309DF814308268DB
:102D580043F002038DF8143094687023324603A9B7
:102D6800A047044648B1094A00902B463146084816
:102D780021F0FAFA204606B070BD20F05FF804464C
:102D8800F8E76FF01504F5E74420002000B60200CC
:102D9800ACA10200054B1B682BB94FF4203200236D
:102DA800034817F031BDFEF7FFBF00BF4C200020DD
:102DB800F80E00202DE9F04F8F488BB012F0B8FDC7
:102DC800034620B101218D4A8D4820F01EF812F0EB
:102DD8007DFD034620B101218A4A894820F015F873
:102DE800894E304625F0EAF9A8B1302025F037FCA5
:102DF800044680B1002585498585854817F0CCFBB8
:102E0800B3681B684BB9204625F022FC0121814A92
:102E18007B481FF0F8FF20F019F82A4630467E4913
:102E280098470028EFD1302025F019FC054690B3CB
:102E3800031D18467949FEF757FE25220146AA8543
:102E480030461FF0F0FF074660B1204625F000FC31
:102E5800284625F0FDFB3B460121714A68481FF0D2
:102E6800D4FFD8E73046211D1FF0D4FF034668B9C8
:102E78006C480AF0A5FB034688B16B4A01216048FB
:102E88001FF0C3FF00200BB0BDE8F08F0121674A97
:102E98005B481FF0BAFF204625F0DAFBBBE7644821
:102EA8000AF0A8FB034608B1624AE7E707F082FD8B
:102EB8000028B0D10321604A51481FF0A4FF5F48A1
:102EC80016F002FE21F0F6FA5D4804F023F90546F3
:102ED80010B103465B4AD1E75B495C4817F0D2F86A
:102EE8005A4817F0AFF9DFF868815A48C8F8000067
:102EF80025F064F910B9584A012153E00321574AD3
:102F08003F481FF080FFD0238DF80F30FFF7DAFE1F
:102F1800044678BBDFF84891394EDFF848A1E0B2A3
:102F2800FFF700FF034650BB01278DF818300DF15D
:102F38000E03CDE9073707230DF10F02D8F800007B
:102F4800049205978DF824309DF82430826843F068
:102F580002038DF82430D2F808B07623022204A99F
:102F6800D84770B1234639463F4A0090304621F091
:102F7800FBF910E001213D4A21481FF044FF3C4A7B
:102F8800BAE79DF80E30602B26D12346524603211E
:102F980030461FF03AFF0134082CC0D1FFF792FEEB
:102FA8000321344A16481FF02EFF3348334B18606C
:102FB80025F004F9A0B90221314A11481FF023FF76
:102FC800013505F00101002012F042FD00214FF407
:102FD800004018F0B3FCF3E702214A460094C5E725
:102FE8002849294817F0D8FA4FF400420023264808
:102FF80017F082FBE4E700BF412C00001FB7020076
:10300800ACA102003DB702002C9C02004D25000037
:10301800C80E002058B70200FD29000078B702004A
:103028009EB7020054060020EEB70200C7B70200A0
:103038004406002024B802005FB80200000C0020FB
:103048003806002075B80200CD240000302000208A
:1030580044200020A49C0200A1B80200B6B80200D7
:1030680035B902001AB90200E5B80200C7B8020073
:103078007EB902005DB90200B89C02004820002019
:10308800A8B902009D2D0000F80E002010B5094CCB
:103098000A44914200D110BD11F8013B5840030980
:1030A800E35C0001C0B243401809205C1B01DBB29D
:1030B8005840EEE70BBA0200F8B50F4600293BD09E
:1030C8000668012230461FF004FF014604463046D8
:1030D8001FF0C7FEC3070DD4AF23184A1849194873
:1030E80020F0FEF83946184820F0FAF8AF211348C6
:1030F80020F0EDF8214630461FF0C9FE2518294674
:10310800002230461FF0ADFE2D1AAC420BD0B7237B
:103118000A4A0E490B4820F0E3F839460C4820F0DB
:10312800DFF8B721E3E7214630461FF0B6FE214617
:10313800BDE8F8401FF0F2BFF8BD00BF1BBA02009F
:103148003EBA02004FBA02006CBA0200A4BA0200EA
:10315800CABA02002DE9F8430F4606681446B26859
:103168004B1EB2F5004F34BF042108213B4010D05C
:10317800C7F1000909EA0709494503F1FF3028BFEB
:10318800494618420CD11F46DCB900252846BDE83F
:10319800F8838F4213D82146BDE8F84320F000B8E1
:1031A8002E494FF4A2732E4A2E4820F099F82E4843
:1031B80020F096F84FF4A271294820F088F8994633
:1031C800E2E7B2EBD40FE0D9E319591A10461FF021
:1031D8008AFE014630461FF0E0FE80460028D4D023
:1031E800B36809EBC005B3F5004F34BF04230823C7
:1031F8001D4435447B1E1D44B5FBF7F57D43A5EB07
:103208000905294630461FF064FE2C44073424F093
:103218000704A41B804507464FEAE40408D2024687
:10322800414630461FF0F3FE414630461FF034FF5A
:10323800394630461FF02BFE3844844208D23946BE
:10324800304622461FF0E3FE214630461FF024FF99
:103258000122394630461FF020FE97E706BB0200E0
:103268001BBA02004FBA020021BB0200B2F5802F40
:103278002DE9F04110D2042A28D843494FF4F973B4
:10328800424A434820F02CF8424820F029F84FF4ED
:10329800F9713E4820F01BF80823D21ACC1D1144BE
:1032A80024F0070421F00701091B17294FEAD1066A
:1032B8000ED8394940F2FB13344A354820F010F84B
:1032C800344820F00DF840F2FB11E2E70423E4E76C
:1032D8000027046031463046A660E7601FF00CFE08
:1032E8000121421D804630461FF0FDFD9200D51D8C
:1032F800ED082844B0423AD8B8F1FF3F3946A2F168
:10330800100204F11000B8BF3A4626F0DAF92A464E
:10331800394620461FF0D9FD3B463A4639462046F5
:103328001FF0AAFDA6EB05082046394601221FF02A
:10333800B4FD424629461FF0C8FD2B463A462946A9
:1033480020461FF099FD314620461FF0BEFD43463A
:103358003A46314620461FF08FFD3146204601226D
:103368001FF09BFD2946BDE8F0411FF095BE0B49B3
:103378004FF40373054A06481FF0B2FF05481FF0D3
:10338800AFFF4FF4037184E73EBB02001BBA020093
:103398004FBA02005FBB020078BB0200A1BB02006B
:1033A80037B50B461546044648B914495E23144AF6
:1033B80014481FF095FF5E2111481FF088FF3AB9A5
:1033C80011495F230E4A0F481FF08AFF5F21F3E778
:1033D80089B102688A4204D3C06801AA01F09CF945
:1033E80018B16FF00B0003B030BD2379019A9A40F1
:1033F800A3689B18F5D000202B60F4E7FBBB020004
:10340800CCBB02004FBA020014BC020038B50B4610
:103418000446114658B91D494FF497731C4A1D4874
:103428001FF05EFF4FF4977119481FF050FFC068F6
:1034380048B9194940F22F13154A16481FF050FF92
:1034480040F22F11F0E7A2684AB914494FF4987373
:103458000F4A10481FF044FF4FF49871E4E769B130
:1034680025688D420CD39A420DD89A1A23791A41AD
:10347800954208D9BDE8384001F0F6B9084638BD8C
:103488006FF01500FBE76FF00D00F8E7FBBB0200DB
:10349800CCBB02004FBA02002DBC02004EBC020099
:1034A8002DE9F04F97B000AF89460446D7F880B0B1
:1034B800FA623B6258B9A94940F29933A84AA94827
:1034C8001FF00EFF40F29931A5481FF000FFCBF323
:1034D800C00390F802A07B6141B9457800780AEBF7
:1034E800800020444D4517D8A0EB0409E378FB6120
:1034F800BAF1000F02D01BF0010F16D1FB6953BBC4
:10350800FB6A1BB1494620463A6A98474D46284609
:103518005C37BD46BDE8F08F461C3046FEF7ECFA36
:103528000130304409F10109DCE7626823787A62E6
:10353800FA6A9900B96104EB8301002A40F002811C
:103548000E464FF000084D4601EB0A094E454CD196
:1035580001EB0A0610E01BF0020FD1D023789A0085
:10356800BA61626804EB83017A62FA6A002A77D149
:103578004D46904601EB0A061BF0050F0CBF0223CF
:103588000123FB62FB6906EB430A0BF00203BB62F3
:103598005645BCD016F8021B16F8013C54F8239087
:1035A800714B994502D3714B994536D37B69002BF2
:1035B80040D0786A1FF057FE00283BD0E9468AB011
:1035C8006A466B4B53617B6AC2E906314FF400735C
:1035D8001384684B42F8103F00234FF41251664899
:1035E80002F052FF023DCD46D2E716F8013BF962E0
:1035F80054F82300FEF780FAD7F88430F96A0130CE
:103608004BB1D7F8883098453EBFD7F8843023F8B7
:10361800180008F10108054498E77B6923B1786A26
:103628001FF021FE0028C9D11BF0010F05D1FB6A4C
:10363800ED1AADE7BB6A002BAAD04846FEF75CFA44
:10364800D7F8843053B1D7F8883098453FBFD7F8BA
:103658008420431C22F8183008F10108054497E734
:10366800BAF1000F74D01BF0040674D0D0460026BF
:1036780007F1480052463B61B96225F0FBFFB96A81
:103688003B6901EB0A02BA62FA69F9695200FA6009
:10369800BA6A02EB41023A610BF00202BA60BA6AF6
:1036A80039698A426AD162781BF0020F18BF00217B
:1036B8007A6208BF4FEA5801B2181BF0010FD2B264
:1036C80040F0E5801BF0040F14BF404600207B61EA
:1036D8006270A070E17020463A6AB969FB6A98473F
:1036E800051EFFF614AF7B69414623707B6A3A6A70
:1036F8006370FB6984F802A0E37007F14800FB6A75
:103708009847B0F10008C0F2F680BB69A9EB0A013E
:10371800C91AFB683A6AC91AD7E90A039847002800
:10372800C0F2EB804FF0000BA84408EB000507F14E
:10373800380AB345C0F0AD8000213A6A0846FB6AF2
:103748009847E4E656464FF0000807F1380091E73D
:103758005646D04695E7B04693E700BF31BD020014
:103768009CBC02004FBA0200DC9A0200B029030098
:103778004CBD02000400000124A10200BA6A12F83C
:10378800021B12F8015CBA6254F825005C4A9042A8
:1037980002D35C4A904218D37A693AB1786A7B605E
:1037A8001FF061FD7B6800287FF479AFBA68002AB2
:1037B8004CD00F2E40D9544940F24D43534A5448F7
:1037C8001FF08EFD40F24D417EE67A693AB1786A83
:1037D8007B601FF048FD7B6800287FF460AF1BF01A
:1037E800010F0BD00F2E27D9474940F24343474AD0
:1037F80047481FF075FD40F2434165E61BF0040F92
:103808003FF44DAFB8F10F0F09D9424940F2464392
:103818003E4A3F481FF064FD40F2464154E608F135
:10382800280207F1300008F1010102EB000808F84E
:10383800105C5FFA81F832E706F1280207F13000E0
:10384800711C161806F8205CCEB228E7B8F10F0FE5
:1038580009D930494FF48A632C4A2D481FF040FD9E
:103868004FF48A6130E608F1280207F1300C08F1BC
:103878000100944407F1580208F1020852FA80F056
:103888000CF8101C5FFA88F800F8105C07E70020B5
:103898001DE71BF80A3054F8239087F83730D7F81B
:1038A80084302BB3D7F888309B4521D2D7F88430A1
:1038B80033F81B8001213A6AFB6A07F13700984701
:1038C80000281ADB0544B8F1000F06D14846FEF778
:1038D80013F900F101081FFA88F8414648463A6A88
:1038E800FB6A9847002808DB05440BF1010B20E729
:1038F8004FF00008DEE7454609E6054607E600BF43
:10390800DC9A0200B0290300EFBD02009CBC020053
:103918004FBA02000EBE0200014B1B68184700BFD9
:103928006C060020014B1860704700BF6C06002031
:1039380030B585B004460D4610220021684625F0B2
:10394800C0FE02238DF80230044B2A462146684601
:1039580001931EF0EBF905B030BD00BF213900001E
:1039680080B505460E461746984618F073F8034684
:1039780026F0A6F80446DFF81890424649F80030C9
:1039880039463046A84754F8090004F06FF800BFDC
:103998000800000038B50D4604462022002125F015
:1039A80090FE0022EB68E361AB68A3612B68236299
:1039B8006B68A26263622A6923B1591E194208BF63
:1039C80042F0010222610122002104F12C0024F0BE
:1039D80097FC48B1054906482F23064A1FF080FC8A
:1039E8002F2104481FF073FC38BD00BFEDF702001B
:1039F8004FBA02003FBE02002DE9F04F002789B000
:103A0800CDE90123436A04468B428846BA460597A6
:103A1800079754D300F11406EFF31185202383F39D
:103A28001288BFF36F8F3046A94618F061FA58B96B
:103A380088234D4A4D494E481FF052FC31464D48A7
:103A48001FF04EFC882163E0304618F075FA079A9B
:103A58002AB1394620461FF024FD0023079306A902
:103A680020461FF04AFC06998346414530D3226818
:103A7800236A204613F8221003EB820A21F003017F
:103A880003F82210216842461FF05BFCE3682060BF
:103A9800984218D04FF0000B304618F037FA50B360
:103AA80089F31188BFF36F8F059929B1A2690AB10B
:103AB8002046904700230593BBF1000FACD1504638
:103AC80009B0BDE8F08F236943F008032361E1E7FB
:103AD80018B120461FF04FFCDEE7DDE90132134341
:103AE80039D0039124F081FC0399A0BB9DBB3046DB
:103AF80018F00CFA78B940F231131B4A1E491C48D9
:103B08001FF0EEFB31461D481FF0EAFB40F2311171
:103B180015481FF0DCFB85F31188BFF36F8F04F1A4
:103B28002C00DDE9012316F037F88346EFF31189FD
:103B3800202383F31288BFF36F8F304618F0D8F92B
:103B480000283FF475AFBBFA8BFB304618F0F4F948
:103B58004FEA5B1BA0E7204607AB05AA27681FF0C2
:103B680029FC834698E700BF65BE020092BE0200AA
:103B78004FBA0200A7BE0200BDBE0200D4BE0200BA
:103B88002DE9F0410446C36908460E46984704F1FA
:103B980014050746EFF31188202383F31288BFF337
:103BA8006F8F284618F0A4F968B988231A4A1B4968
:103BB8001B481FF095FB29461A481FF091FB8821E6
:103BC80015481FF084FB284618F0B6F933783A46B2
:103BD80043F001033370616820461FF0B2FB606058
:103BE80020461FF079FC284618F090F968B940F291
:103BF8003113094A0C490A481FF072FB29460B4841
:103C08001FF06EFB40F23111DAE788F31188BFF339
:103C18006F8FBDE8F08100BF65BE020092BE020052
:103C28004FBA0200A7BE0200BDBE0200D4BE020009
:103C38002DE9F843044600F11407EFF31188202317
:103C480083F31288BFF36F8F384618F051F9054691
:103C580068B98823344A354935481FF041FB39464D
:103C680034481FF03DFB88212F481FF030FB3846B1
:103C780018F062F92369A26813F0080F02D163688B
:103C88009A4200D9636A9B1A002B3FD0216A11F827
:103C9800223001EB820913F003003AD0022803D145
:103CA80051F82260B60805D1D8071FD44846E36901
:103CB80098470646A168324620461FF042FB314627
:103CC800A06020461FF04BFB384618F01FF910BBC8
:103CD80040F23113144A184915481FF001FB3946C0
:103CE80016481FF0FDFA40F23111BDE743F0020318
:103CF80001F82230E3694846A568984729460246F4
:103D080020461FF01EFB0025A060DDE71D46A946E2
:103D1800DAE70546FBE788F31188BFF36F8F002DBC
:103D28008BD14846BDE8F88365BE020092BE02000A
:103D38004FBA0200A7BE0200BDBE0200D4BE0200F8
:103D48002DE9F0410446C36908460D46984704F139
:103D580014060746EFF31188202383F31288BFF374
:103D68006F8F304618F0C4F868B98823274A284965
:103D780028481FF0B5FA314627481FF0B1FA8821C4
:103D880022481FF0A4FA304618F0D6F82B786FF3C3
:103D980000032B7023699B0705D5E268236A03EBB0
:103DA80082039D4222D12B786FF341032B70D4E913
:103DB8000231994204D13A4620461FF0C2FAA06067
:103DC800394620461FF0CBFA304618F09FF890B9D4
:103DD80040F231130D4A11490E481FF081FA31465D
:103DE8000F481FF07DFA40F23111C9E72B6867F3DD
:103DF8009F032B60E8E788F31188BFF36F8F04F106
:103E08002C00BDE8F04115F05FBE00BF65BE0200A2
:103E180092BE02004FBA0200A7BE0200BDBE020059
:103E2800D4BE020070B5044600F11405EFF3118604
:103E3800202383F31288BFF36F8F284618F058F8B1
:103E480068B988231A4A1B491B481FF049FA2946B2
:103E58001A481FF045FA882115481FF038FA2846F5
:103E680018F06AF82369A06813F0080F02D1636894
:103E7800984213D9646A241A284618F047F878B982
:103E880040F231130A4A0E490B481FF029FA294615
:103E98000C481FF025FA40F23111DDE71C1AEBE758
:103EA80086F31188BFF36F8F201E18BF012070BDE5
:103EB80065BE020092BE02004FBA0200A7BE020011
:103EC800BDBE0200D4BE02002DE987480546EFF3C7
:103ED8001186202383F31288BFF36F8F18F008F838
:103EE80058B98823444A454945481FF0F9F92946F5
:103EF80044481FF0F5F988213BE0284618F01CF8E3
:103F08004FF0FF384FF0FF393F4F05F10C0A012100
:103F180050461FF0F6FB0446002855D00146A0F194
:103F2800280B504600F0E8F9BB6805F11802A360B9
:103F3800EB692846C4E900231C60EC61BB6854F8AF
:103F4800282C9A7354F8242C1A611A7B22F0100238
:103F58001A7317F0DBFF78B940F23113264A2B4960
:103F680027481FF0BDF9294629481FF0B9F940F242
:103F7800311121481FF0ABF986F31188BFF36F8F19
:103F8800584654F8203C9847EFF31186202383F3D2
:103F98001288BFF36F8F284617F0AAFF0028A0D019
:103FA800284617F0C9FFBB681B7B13F01003AED17E
:103FB800D4E900210A605160C4E90033A360A4F188
:103FC800180015F081FDA2E731462846CDE90089A1
:103FD8002A1D17F0B9F8EFF31186202383F312880E
:103FE800BFF36F8F284617F083FF00283FF479AF9F
:103FF800284617F0A1FF8AE765BE020092BE0200BC
:104008004FBA0200A7BE0200B02B0020BDBE0200BE
:10401800D4BE020010B504462422002125F051FB2D
:10402800231DC4E90133034B236104F11803C4E9D8
:10403800063310BDFB34020070B50446256A88B00B
:10404800084645F3400611461A4600236FF00F054F
:10405800CDE90043CDE902350493CDE90666024B6C
:1040680016F0CEFD08B070BDD13E00002DE9F04736
:104078004FF088081F4C204FBC4236D91F49932364
:104088001F4A20481FF02CF91F481FF029F99321D7
:104098001B481FF01CF96368A668073323F0070A5A
:1040A8006369D90705D509FB05663046FFF7B2FFF6
:1040B80001E0002DF9D0636930465A0748BF43F044
:1040C80002033362D4E90312636805FB0A2208FB82
:1040D8000511FFF7B1FF01352368AB42DBD818346F
:1040E800CAE700254FF02409F6E7FAD30020BDE817
:1040F800F08700BFF49E02000C9F02000ABF020076
:10410800E9BE02004FBA02002BBF02002DE9F041C0
:1041180006460C46EFF31187202383F31288BFF37A
:104128006F8F17F0E5FE60B98823644A64496548D3
:104138001FF0D6F8314664481FF0D2F888215F484E
:1041480055E0304617F0F8FE23F067F963685F4AD8
:1041580003446360216B9368994237D1D4E90A31EB
:104168000B6059600023C4E90A3391680A7B42F066
:1041780010020A73236306F10C0504F1280841466E
:1041880028461FF0CBFA0121284666631FF0B9FACA
:1041980080457AD1324652F8183F93422BD053B318
:1041A8000022283B1946206851F8285B854206DC26
:1041B80004D15D686068854200D000DC0132F06996
:1041C800814216D09B6AA3B1283BEBE7012200216C
:1041D80004F1100024F094F8236B002BCBD03C4959
:1041E8003848E9233B4A1FF07BF8E92139481FF09A
:1041F8006EF8002A49D1EFF31183202282F3128846
:10420800BFF36F8F83F31188BFF36F8F5BB93249A8
:10421800B023324A2B481FF063F831481FF060F88A
:10422800B0212E48E3E7334653F8045F9D4227D078
:1042380035B3AB683BB92B499923284A21481FF06D
:104248004FF89921EDE7D5E9003213605A60002351
:104258006A7BC5E9003322F002026A73AB6005F19C
:10426800200017F07FFF23682846AB7363682B6133
:1042780016F088FE39463046BDE8F04117F0DEB842
:104288000221194A194820F05CF8304617F03EFE22
:1042980068B940F23113094A15490A481FF020F855
:1042A800314614481FF01CF840F2311147E787F3F4
:1042B8001188BFF36F8FBDE8F08100BF65BE0200B3
:1042C80092BE02004FBA0200A7BE0200B02B002027
:1042D8004ABF0200E9BE020091BF020066BF0200A9
:1042E800A9BF0200ACBF0200C3BF0200A4A1020024
:1042F800BDBE0200D4BE02002DE9F04F87B083682E
:1043080000AF9B000B3323F00703C7F80CD0ADEBCD
:10431800030DE9466B464A469B080E463B618346B9
:104328001FF075F909EB800858F8042C0446B242CE
:104338004FEA80035DD13568012D4DD97268002A96
:104348004AD00128D8BF00203A6925F00105C8BF26
:1043580058F8080C013443F822506B68002B4ED1F2
:1043680009EB840A5AF8083C00284DD041682A46CF
:10437800A1EB060CDCF1000141EB0C017B611FF0A5
:1043880063F97B699E4242D12A68336822F00102B0
:1043980003F00103134333602B6803F00103334335
:1043A8002B6073685AF8042C6B600023736058F80C
:1043B800043C48F8042C32684AF8043C2B6822F084
:1043C800010103F001030B4333602B6802F0010283
:1043D80023F0010313432B603268012A2ED9012CE4
:1043E80022F0010534DCCBF800502B6843F00103C0
:1043F8002B60D7F80CD01C37BD46BDE8F08F49F8C4
:1044080024301D460134A8E7CBF80050BAE75968B4
:104418003246481B4142414118461FF015F932689F
:104428002B6802F0010123F001030B4333602B6872
:1044380022F0010203F001031343B1E7012C756870
:1044480028DCCBF80050002DCFD1CBF80850D0E7AE
:10445800023C59F8240041682A468C1B614261419C
:104468001FF0F2F832682B6812F0010F40F0F2806A
:10447800D80700F1ED807A4940F2ED13794A7A487D
:104488001EF02EFF79481EF02BFF40F2ED11754803
:104498001EF01DFFA31E59F82300002DDBD112F0DA
:1044A800010200F0D08004F18043013B09EB830254
:1044B80052F804AC59F82310DAF804507961A9428B
:1044C80002BFDAF800504FF0010825F0010529680D
:1044D80018BF4FF00008C9071FD4214649F82350D8
:1044E80048467A60BB601FF0B8F8DAF800107B69BC
:1044F80021F00101CAF800107A6829685360BB6886
:1045080041F0010159F823A029600134B8F1000FE6
:1045180028D0DAF8005025F0010528686B680128D2
:1045280020F0010102D90A68D20750D513B11A68E0
:10453800D2071FD57B699E4204D1002241465046CE
:104548001FF082F82B6823F001032B60DAF80030A3
:10455800D9070AD5013C012CA5D1D9F80030CBF8F0
:10456800003046E7DAF80450D7E743F00103CAF809
:104578000030F2E7B8F1000F57D001282AD804F12B
:104588008041386901398A0009EB810142F82050DD
:104598004B604846611C7A60BB601FF05EF8296872
:1045A800BB6821F00101296019687A6841F00101AE
:1045B80019603B6952F82350B8F1000F3DD02968C3
:1045C80021F00101D7E9043042F8230007E0B8F1EF
:1045D800000F29D00A684FF00108D207CFD42B6802
:1045E800DAF8002023F0010302F0010213432B60E4
:1045F800DAF80030484643F00103CAF800300B6887
:1046080043F001030B6004F18043013B49F8235058
:1046180021461FF022F87B699E429ED10022414626
:1046280050461FF011F898E72BB11A686FEA020894
:1046380018F0010803D10B46A1E76968C2E71946DB
:104648004FF00008CBE741688D1B69426941E8E7F4
:10465800D10701D5DA0780D443F001032B607CE74A
:104668001DC00200FBBF02004FBA02003FC002009B
:10467800F8B50646DDE906051C461FF0E9F8D0E95D
:1046880000139942B668026914D156F8213004B96A
:10469800DB4332EA03002BD022EA03025DB362BB9C
:1046A8001A491B4896231B4A1EF01AFE96211948E0
:1046B8001EF00DFE56F8217004B9FF4332EA070CCC
:1046C80002D022EA0702E9E756F8237004B9FF434B
:1046D800426932EA070008D0194622EA0702DDE7F4
:1046E80056F8212004B1D24322B901318B42F7D8C0
:1046F800012001E00DB90020F8BD92FAA2F2B2FA49
:1047080082F202EB41122A60F5E700BF7AC002008C
:104718004FBA020052C002002DE9F04F0D469146F3
:1047280004468BB058B9474940F2F513464A474802
:104738001EF0D6FD40F2F51143481EF0C8FD03688F
:104748004BB943494FF4FB733F4A40481EF0C8FD3C
:104758004FF4FB71F0E700F10C06EFF3118A202308
:1047680083F31288BFF36F8F304617F0C1FB60B92F
:104778008823384A384935481EF0B2FD3146374853
:104788001EF0AEFD88213348D7E7304617F0D4FB3A
:10479800B9F1000F4AD0002D48D02068A84245D36F
:1047A8000022676897424FEA421B0DD0A36853F86E
:1047B8002230591C01D10132F4E72BB1DB4393FAC3
:1047C800A3F3B3FA83F39B44A0EB050804AFC345F6
:1047D80002D96FF01B0413E003ABCDE900732A463E
:1047E800002359462046FFF743FFD8B1204600244E
:1047F80001232A46594600971FF047F8C9F800B028
:10480800304617F083FBA0B940F23113114A14491E
:104818000E481EF065FD314612481EF061FD40F25B
:104828003111B0E7039901F1010BD0E76FF01504DE
:10483800E6E78AF31188BFF36F8F20460BB0BDE817
:10484800F08F00BF8FC0020052C002004FBA0200B2
:10485800A7C0020065BE020092BE0200A7BE020009
:10486800BDBE0200D4BE02002DE9F0474C1E0E4624
:104878009046054688B0144458B9374940F2862313
:10488800364A37481EF02CFD40F2862133481EF088
:104898001EFD03684BB9334940F287232F4A30483D
:1048A8001EF01EFD40F28721F0E700F10C09EFF33E
:1048B800118A202383F31288BFF36F8F484617F0BD
:1048C80017FB60B98823284A284925481EF008FDA7
:1048D800494627481EF004FD88212348D7E7484663
:1048E80017F02AFB56B32B68B34227D3434525D983
:1048F800A34223D9002402AF012332464146284669
:1049080001940097FFF7B4FED8B1234632464146DA
:10491800284600971EF0B9FF484617F0F7FA98B9ED
:1049280040F23113104A13490D481EF0D9FC49468C
:1049380011481EF0D5FC40F23111CEE76FF0150496
:10494800EAE76FF00D04E7E78AF31188BFF36F8F8A
:10495800204608B0BDE8F0878FC0020052C00200B0
:104968004FBA0200A7C0020065BE020092BE020054
:10497800A7BE0200BDBE0200D4BE02002DE9F84F5A
:104988000446A38B08461907154612D4022803F0DB
:10499800070165D120461EF0C0FF88B10138042800
:1049A80000F23781DFE810F05C0035018200D400A6
:1049B800040101280CBF43F0100143F02001A1833A
:1049C8001434204617F0A2FA002840F09D819A4935
:1049D80040F23113994A9A481EF082FC2146B1E010
:1049E80003F00702501F01281ED80020062A276856
:1049F800C4E9000014D13A4603E0E08B0130E083BB
:104A08001268002AF9D123F0070343F00202204676
:104A1800A2831EF082FF90B342F02002A2832EE010
:104A280023F007039AB2F2E7042A33D123F00703ED
:104A38009AB22046A2831EF070FF10B142F0200205
:104A4800A283A38B03F00709894540F0EC80A18B72
:104A5800CA0640F1508121F01003A38301F0070139
:104A6800D4F81880A38BB8F1000FB9DA00222768B0
:104A780023F00703C4E9002243F00103A383A38BB7
:104A880003F00709894540F0CF80002FDFD00026CA
:104A9800B24644E06B4940F21B136B4A68481EF06B
:104AA8001FFC40F21B1168481EF011FC49B1674910
:104AB8004FF4AB73644A62481EF012FC4FF4AB71BA
:104AC800F1E723684BB9624940F257135E4A5C48E4
:104AD8001EF006FC40F25711E5E723691E684EB93F
:104AE8005C494FF4AD73584A55481EF0F9FB4FF432
:104AF800AD71D8E70F4688464FF00609A38B23F01F
:104B0800070343F006039BB2A383A268002A40F080
:104B18008D80002F40F08D80002E98D0BA4643F04B
:104B2800080304F1140B5846A38317F0EFF9002883
:104B380040F09A80404940F23113404A40481EF004
:104B4800CFFB594644481EF0CBFB40F23111ADE093
:104B5800022909D0414940F25D133B4A38481EF00A
:104B6800BFFB40F25D119EE7E78B4FB13C494FF424
:104B7800AF73354A32481EF0B3FB4FF4AF7192E77A
:104B880023695E684EB9334940F261132E4A2C48B6
:104B98001EF0A6FB40F2611185E7A38BB84623F00F
:104BA800070343F004039BB24FF00409A383ACE767
:104BB800012909D02B494FF4B273234A20481EF02B
:104BC8008FFB4FF4B2716EE723684BB9204940F26E
:104BD80065131D4A1A481EF083FB40F2651162E70F
:104BE80023699E684EB91B494FF4B473164A14489A
:104BF8001EF076FB4FF4B47155E70027A38BB84637
:104C080023F0070343F005039BB24FF00509A38384
:104C18007BE70C4940F26B130B4A09481EF060FB16
:104C280040F26B113FE7002700266EE74FF0010ABC
:104C380075E7924673E700BFBDBE020065BE02007D
:104C48004FBA0200AB090300BEC00200E3C0020075
:104C5800EFC0020012C10200D4BE020029C1020046
:104C68003FC102004EC1020085F31188BFF36F8F68
:104C7800BAF1000F1CD177BB16B120462549B047C1
:104C8800EFF31185202383F31288BFF36F8F584603
:104C980017F02EF938BB88231F4A204920481EF0F8
:104CA8001FFB59461F481EF01BFB88211A48FBE6CC
:104CB800A1680029DFD00D680029DCD043464A46A8
:104CC8002046D1F804A0D0471DB12B6829461D46BF
:104CD800F2E72B46FAE7394643464A4620463F68FC
:104CE8001EF047FEC7E7584617F026F9A38B23F0B6
:104CF8000803A383ABE68B067FF562AE21F02003A1
:104D0800A38301F0070145E685F31188BFF36F8F90
:104D1800BDE8F88F314D000065BE020092BE02006A
:104D28004FBA0200A7BE0200F8B504460D4600F1CE
:104D38001406EFF31187202383F31288BFF36F8FD4
:104D4800304617F0D5F868B988230C4A0C490D4845
:104D58001EF0C6FA31460C481EF0C2FA88210748F0
:104D68001EF0B5FA304617F0E7F8A5613A46204636
:104D7800BDE8F8400121FFF701BE00BF65BE020093
:104D880092BE02004FBA0200A7BE02002DE9F0470A
:104D980004460F461EF0DDFD051E68DB04F114090C
:104DA800EFF3118A202383F31288BFF36F8F4846ED
:104DB80017F09EF8804660B98823384A3849394840
:104DC8001EF08EFA494638481EF08AFA8821334880
:104DD80042E0484617F0B0F84FF6FF72E38BA68B17
:104DE800934206F0070645D0022E15D13546013309
:104DF800E383484617F08AF8002841D140F231137E
:104E0800264A2A4927481EF06BFA494628481EF0C8
:104E180067FA40F23111DAE7062E13D8DFE806F018
:104E2800092D1212090409006FF085054FF00008DA
:104E3800DFE700233B60636883B9C4E9007786B184
:104E48003546F3E71B4917484FF4E4731A4A1EF036
:104E580047FA4FF4E47118481EF039FA1F6067608A
:104E6800EDE7524602212046FFF788FD35462846E1
:104E7800BDE8F0876FF00A05D8E76FF00405D5E7BD
:104E88008AF31188BFF36F8FB8F1000FEFD00023BA
:104E98003246394620461EF06CFDE8E765BE020042
:104EA80092BE02004FBA0200A7BE0200BDBE0200B9
:104EB800D4BE02004EC10200BEC00200F8B50546CD
:104EC80000F11406EFF31187202383F31288BFF350
:104ED8006F8F304617F00CF860B98823254A2649A9
:104EE80026481EF0FDF9314625481EF0F9F98821BB
:104EF80020482BE0304617F01FF8AC8B04F007046D
:104F0800022C17D0012C0CBF6FF004046FF085043D
:104F1800304616F0FBFF38BB40F23113154A1949E9
:104F280016481EF0DDF9314617481EF0D9F940F24F
:104F38003111DDE7EB8B5BB91449104840F2EF13F0
:104F4800134A1EF0CDF940F2EF1111481EF0BFF9D7
:104F5800013B9BB2EB83002BDAD13A462146284627
:104F6800FFF70CFD2046F8BD87F31188BFF36F8F5C
:104F7800F8E700BF65BE020092BE02004FBA020009
:104F8800A7BE0200BDBE0200D4BE020064C102007A
:104F9800BEC0020008B54268034602F00302022AB6
:104FA80081600AD0032A4FF0000103D0012A0AD1F8
:104FB800596006E01868596008BD186800225A60F0
:104FC80058B90020F8E7064906484523064A1EF066
:104FD80087F9452104481EF07AF917F087FBF0E7B6
:104FE800AB0903004FBA020072C102002DE9F74372
:104FF8000F4606460821C06A1EF063FD80463C68DD
:10500800DFF84890241A3C6004EA0905AC4203D84A
:10501800002003B0BDE8F08308236A4621463046E5
:105028001EF0E5FC0028F4D1694630461EF053FD19
:1050380040B1BDF80230BDF8042005EA0905134463
:105048001D443C60A4EB0804E0E700BF0000FFFF3C
:1050580073B504464FF6FF72C06A08211EF031FD91
:10506800002563680F4EADF800208DF80620A28950
:10507800191833401344181A60606846ADF80210D6
:10508800ADF804501EF014FD694620461EF0E3FDFD
:105098002046211D1EF0E4FC284663683340A360C7
:1050A80002B070BD0000FFFF2DE9F04704468AB04A
:1050B80000F11407384623F0EAF8A06A8368DB6831
:1050C8009847E06250B9864A012186481EF0D5FC0F
:1050D8006FF0150528460AB0BDE8F087A06A836816
:1050E800DB6898470368013B1F2B01D97E4AEBE731
:1050F800A06A216807AA21F0F5FB08B17B4AE3E71B
:10510800A5892DB1089BB5FBF3F203FB12550DB130
:10511800774AD9E7E389012B01D8764AD4E7E36ACD
:10512800029593F805904FF0FF334FF0FF32384661
:1051380014F0BCF90821E06A1EF0C3FCA846064634
:10514800E3891FFA85FA534508D8E389434523D1F3
:10515800384614F07BFA6FF02C05BBE7A1892B04C5
:10516800891B13FA81F14A460823204602911EF052
:105178004CFC78B1204602A91EF072FC08F1010827
:1051880008234A46204602991FFA88F81EF03DFC7B
:105198000028DAD00135D3E753450BD1029908230B
:1051A8004A462046891B1EF030FC18B9204602A941
:1051B8001EF056FC204602A9FFF718FF054618B155
:1051C800384614F043FA85E7029B4FEA13484FEA42
:1051D80008486360C4F80880D4E9011399420FD3E2
:1051E8000823204603AA1EF002FC05460028E7D142
:1051F80003AB13F8012B91453DD10135082DF8D1AA
:10520800636820461B0C1B0402A902931EF028FCAD
:105218004A462046A38902991EF0F7FB051ECFDBFC
:1052280063687BD04FF6FF7906EB0308A3891FFA62
:1052380088F29B1B9A42CDF8088038D303212E4A66
:1052480028481EF01AFC204661681EF018FC054626
:105258000028B5D16368294AA18913400B44A3EB00
:105268004603636013402046A3601EF01CFD0546FC
:10527800002D6FD0A4E7204603A91EF02CFC62681D
:1052880010B9921B6260A7E7BDF81050BDF80E1068
:10529800E06AC4F8088029441EF013FC4044904298
:1052A800A060EED1002DECD06FF01C057DE0082346
:1052B8004146204605AA1EF09AFB054600287FF4C1
:1052C8007FAF204605A91EF006FC38B1BDF81430A2
:1052D8004B4503D1BDF81830002B6CD0B044A5E77E
:1052E800ACC102004CA10200CEC10200EBC1020019
:1052F80003C2020017C2020074C202000000FFFFCE
:105308004A4620465B1A1EF080FB051EFFF658AF82
:1053180008D0E26AA36812681344A360D4E9013193
:105328008B42EDD86168A38901EB46029A429FD16E
:10533800DFF8A880A26801EA08039A4298D02046BC
:105348001EF09DFB054600287FF43AAF636803EA28
:105358000803A360A389A288A3EB46039A4220D03E
:10536800384614F073F90123A2892374E3890321D1
:1053780000921B481B4A1EF0F7FF63689AB200921E
:105388000321194A16481B0C1EF0EEFFA3689AB2B7
:1053980000920321154A12481B0C1EF0E5FF002558
:1053A80098E620461EF068FC0546384614F04EF98B
:1053B800002DD8D08EE60E4A032109481EF05DFB69
:1053C800636820461B0C1B0402A902931EF048FBCD
:1053D800204602991EF053FB49E700BF0000FFFF7B
:1053E8004CA102003AC2020051C2020063C202008C
:1053F8009BC202002DE9F04F1D46037C91B0044684
:105408000291009253B90121634A64481EF035FBAA
:105418006FF00C06304611B0BDE8F08FC26A082163
:1054280010461EF04EFB2946019010461EF049FB1F
:10543800A389019A0746A3EB8203AB42C0F0A98077
:105448001DB1009B002B00F0A480636805932046E3
:1054580006AA05A9DDF814A01EF07AFB0646002866
:10546800D8D1BDF81830029A934206D06268059BDD
:105478009A42ECD1002D36D1CCE7204606A91EF081
:105488002AFB0028F2D0BDF81A80BDF81C3045B3BD
:105498009D4228D14FEA1A4A4FEA0A4AD044AA46FE
:1054A800E36ADDF800B01B685B4203F02003039356
:1054B800DDF80C904146D14528BFD14620464B46E1
:1054C80008AA1EF094FA00284AD14A46584608A964
:1054D80024F0FFF838B9BAEB090AC844CB44E7D13D
:1054E80098E7002B96D0002F3DD1B84604F1140A56
:1054F8004FF0FF324FF0FF33504613F0D7FFE389E8
:105508009E4243D0A168626808EB01039A422FD3F8
:10551800029B2046ADF82030FF23009A8DF82630F4
:105528002B46ADF82210ADF824501EF05BFB29463F
:105538000746E06A1EF0C5FAA3680344A36057B99A
:1055480008A81EF0B5FA204608A91EF084FB00281A
:1055580014BF07462F46504614F078F83E4659E7E0
:10556800C1DC064656E7019B1F441FFA87F8BDE7D2
:105578002046FFF76DFD07460028ECD120461EF0B7
:1055880092FB07460028E6D10136B8E76FF01B0703
:10559800E1E76FF015063DE798C102004CA1020053
:1055A8002DE9FF471E46037C04460F469046BDF88A
:1055B80030904BB92C4801212C4A1EF05EFA6FF04E
:1055C8000C0004B0BDE8F0870821C06A1EF079FA23
:1055D800A389A3EB4003B34243D30025D4F804A026
:1055E800CDF804A04D455146DDF804A009D96368FB
:1055F80053451ED1BDF80830BB421AD06FF00100E8
:10560800DFE7204602AA01A91EF0A2FA0028D8D195
:10561800BDF80830BB4206D1204602A91EF05BFA4D
:1056280008B10135ADB26268019B9A42DAD15146A0
:10563800E0E7BDF80C30002BE0D0A945DED8BDF876
:105648000A00090CB3424FEA014128BF334601441E
:10565800424620461EF0CBF90028B2D1BDF80C0016
:10566800AFE76FF01500ACE74CA1020098C102004B
:1056780010B530B90B480C491EF0EDFB6FF0150062
:1056880010BD836833B9074808491EF0E4FB6FF082
:105698000400F5E71B6813B1BDE810401847184629
:1056A800EEE700BF64A10200B7C20200C8C2020050
:1056B80010B530B90B480C491EF0CDFB6FF0150042
:1056C80010BD836833B9074808491EF0C4FB6FF062
:1056D8000400F5E75B6813B1BDE8104018471846A9
:1056E800EEE700BF64A10200B7C20200C8C2020010
:1056F80070B508B101B132B90B480C491EF0ABFBCB
:105708006FF0150070BD84680CB1E56835B90648BE
:1057180007491EF0A0FB6FF00400F3E741F8040B03
:10572800E368BDE87040184764A10200E6C20200C1
:10573800C8C2020010B5044630B9104810491EF01E
:105748008AFB6FF0150010BD006830B90B480D4991
:105758001EF081FB6FF00100F5E783680BB11B6950
:1057680033B9064808491EF076FB6FF00400EAE7F3
:10577800616898470028E6D12060E4E764A1020048
:1057880012C3020023C30200C8C2020070B5134648
:10579800044630B9104811491EF05DFB6FF0150042
:1057A80070BD006830B90C480D491EF054FB6FF00D
:1057B8000100F5E782680AB1956835B906480949D4
:1057C8001EF049FB6FF00400EAE70A46AC46616840
:1057D800BDE87040604700BF64A1020012C3020028
:1057E80023C30200C8C20200034A13680BB95268F7
:1057F80013600020704700BF7006002030B50C46CB
:105808000E4985B00291D0F8D4110546CDE9003192
:1058180000F1F0014FF0FF33204612F031FD50B98E
:10582800012384F86C30D5F8D03123B1204605B077
:10583800BDE83040184705B030BD00BF573F0200F3
:1058480038B50C46114605461EF083FB034638B9A9
:10585800284604491EF07DFB03460020236038BD1E
:105868000120FBE7ABBF02002DE9F04F0123814681
:105878000569466887B005F55F77D7E8EF2F002AF6
:1058880003D1C7E8E13F0029F7D10CBF1A4600222F
:1058980040F0B080B368B16A05F5F8781C1F10466F
:1058A8001EF0DEFB84426ED8013A00F09D80B2FA09
:1058B80082F24FF00044D44072682046073222F04A
:1058C8000302C5F83C22B16A1EF0CAFBC5F84002C3
:1058D800B36A40466343033323F0030302EB4302F6
:1058E800230103EB4403093323F0030303EBC4034D
:1058F800C5F834221A440832C5F830227368C5F84E
:105908003842C5F82C323D4BC5E9AD63316800F02B
:10591800E5F90446002834D1D9F810B0D9F804A024
:10592800D9F800300BF53479059004934846DAE944
:105938000734012B08BF103C14F018FDDAF82400D6
:105948002F4904AB01EB80214FF480624846009355
:10595800234614F025FD2B490BF5307014F092FB0B
:10596800DAE9050183685C684CB15B46264AA047C2
:10597800044630B9DAE9050183681B692BB96FF071
:105988005704002129E0013289E70122984704469B
:105998000028F6D11D4B2846C5F8D0311C4BC5F858
:1059A800D4311C4B0393D5F840320293D5F83C32DE
:1059B800CDE9008305F51173B26AD5F8781300F0C4
:1059C80055F904460028DCD105F1F00012F0FEFC80
:1059D8000028C5F880030ADB022138461EF0EDFADC
:1059E800204607B0BDE8F08F6FF00B04C9E76FF0F1
:1059F8001504C6E76FF07704F2E700BFAD3F020079
:105A080018440020933F0200873F0200215A0000FB
:105A18003F410200F33F020013B5044640B10023A2
:105A28000122CDE90032074BD0E9091212F0FCFB44
:105A3800236F1B6823B1606F02B0BDE810401847A0
:105A480002B010BDABBF020013B504460846216979
:105A580001F55F71D1E8AF1F022910D193B1A0B150
:105A68000121CDE900311346D0E9091212F0DCFB1F
:105A7800074B984208BF6FF00B0002B010BD6FF0E3
:105A88000F00FAE76FF04C00F7E76FF00100F4E75A
:105A98002EF8FFFF2DE9F34789461546066906F5F6
:105AA8005F73D3E8AF3F022B64D1136823B96FF05B
:105AB800150002B0BDE8F0871B78002BF7D0D6F8A8
:105AC80078A3BAF1000F36D106F5EC774FF0FF3224
